:020000040800F2
:10000000F8040020C5000008A9130008110E00081C
:1000100000000000000000000000000000000000E0
:10002000000000000000000000000000F3130008C2
:100030000000000000000000F1130008F5130008A4
:10004000D700000800000000D7000008D700000813
:10005000D7000008D7000008D7000008D700000824
:1000600000000000D7000008D7000008D7000008F3
:10007000D7000008D7000008D700000800000000E3
:10008000D70000080000000000000000D7000008B2
:1000900000000000D7000008D7000008150E000877
:1000A00000000000D700000800000000D917000879
:1000B0000348854600F04EF800480047291800081C
:1000C000F80400200448804704480047FEE7FEE7A4
:1000D000FEE7FEE7FEE7FEE75D140008B10000085A
:1000E00030B50B46014600202022012409E00D46D0
:1000F000D5409D4205D31D469540491B2546954058
:1001000040191546521E002DF1DC30BD03460B434D
:100110009B0703D009E008C9121F08C0042AFAD2BD
:1001200003E00B780370401C491C521EF9D2704743
:10013000D2B201E00270401C491EFBD2704700227F
:10014000F6E710B513460A4604461946FFF7F0FFD6
:10015000204610BD064C0125064E05E0E36807CC9D
:100160002B430C3C98471034B442F7D3FFF7A4FF5D
:100170003C1900085C19000870B5002401462031C4
:100180004A78022A03D004218163012416E0026820
:1001900013680E25AB431360026813685B085B00AD
:1001A00013600122056C1346AB40C56B6B604A704F
:1001B00000220A70416B002900D08847204670BD9C
:1001C000F8B500238DE001249C40A44622407DD058
:1001D0004C68022C01D0122C0CD1DC08A40027188A
:1001E0003C6A5D07ED0E0F26AE40B4430E69AE408B
:1001F00026433E6205685E000324B4400F79A543A0
:10020000BF07BF0FB7402F4307604D68012D05D0D2
:10021000022D03D0112D01D0122D0ED18568CF688B
:10022000A543B7402F43876047686546AF430D79C4
:10023000ED06ED0F9D403D434560C568A5438C68C4
:10024000B4402C43C4604C68E40049D5284CA569EF
:1002500001263543A561A4699D0834400094254CCE
:10026000AD002F19BC689D072E0F0F25B540AC437C
:100270000925ED06A84201D100250FE01E4DA84238
:1002800001D101250AE01D4DA84201D1022505E05A
:100290001B4DA84201D1032500E00525B5402543AB
:1002A000BD60184C25684E689543F60300D515438C
:1002B000256065684E689543B60300D515436560B3
:1002C000A5684E689543F60202D500E008E01543A4
:1002D000A560E5684E689543B60200D51543E56014
:1002E0005B1C0A681446DC4000D06CE7F8BD0000D7
:1002F00000100240000001400004004800080048CF
:10030000000C0048000401400148006870470000EC
:100310000800002070B5024640325378202B1CD1D3
:100320001378012B19D0012313702424547004680E
:1003300025689D432560046825681E03B543256034
:10034000046825680D432560006801681943016051
:10035000202050700020107070BD022070BD70B55C
:10036000024640325378202B1BD11378012B18D032
:10037000012414702423537003681D68A5431D6075
:1003800005682B680F263602B3430902194329601A
:100390000068016821430160202050700020107027
:1003A00070BD022070BD7047704770B503689A69D0
:1003B0001968D40507D50C0605D5446C01252C43D6
:1003C00044642C02DC61530508D50B0606D5436C4A
:1003D000082423434364E3010468E361920508D5DC
:1003E000090606D5416C02221143416411020268DC
:1003F000D161416C0B22114202D0416C00F0AEFD84
:1004000070BD026891691268436B002B00D01847D9
:100410007047704770B5040006D0254640356878AF
:100420000026002802D005E0012070BD2E70204675
:1004300000F04CF8242068702068016849084900E1
:1004400001600F21606809068843216808612168FE
:100450008A680120C00382438A60E1680129A1689B
:1004600008D021229202114322689160E16802299A
:1004700002D005E00143F7E701212268C90251607B
:1004800021684A680F4B1A434A602168CA68824350
:10049000CA60616920690843A169090208432168AB
:1004A000C860216AE0690843216808602068016823
:1004B0000122114301606664202068702663AE70DB
:1004C000002070BD008000027047000010B586B0AB
:1004D000044614216846FFF732FE17492068884217
:1004E00028D1164C616901204004014361616169B2
:1004F000014003200591400200901220019001204C
:100500000290032003900420049009206946C0064D
:10051000FFF756FEE169012040050143E161E16911
:100520000022014005911146172000F053F81720D2
:1005300000F046F806B010BD005400400010024024
:100540007047704702480168491C0160704700000D
:100550000800002010B50648016810221143016010
:10056000002000F007F800F017F8002010BD000090
:100570000020024010B5044600F03AF97D21C90080
:10058000FFF7AEFD00F030FB00222146501E00F0C8
:1005900021F8002010BD000008B50848816901223B
:1005A00011438161816911400091C26901040A43CC
:1005B000C261C0690840009008BD00000010024000
:1005C000C106C90E0120884001490860704700003B
:1005D00000E100E010B500F0E9FE10BDF8B50546F9
:1005E0000068354CC00352D5E0690026C00007D42E
:1005F000E16920040143E161E169014001260091C4
:100600002E480168C90510D40168821511430160A4
:10061000FFF77AFE074604E0FFF776FEC01B64286A
:1006200024D826480068C005F6D5206A03273F0273
:10063000384020D06968394081421CD0206A226A43
:10064000B843012109040A432262226A8A432262D2
:100650002062C0070FD0FFF757FE009008E0FFF7B9
:1006600053FE0099411A1648814201D90320F8BD72
:10067000206A8007F3D5206A6968B843084320627E
:10068000002E04D0E169012000078143E161287850
:10069000C00705D0206BA96880088000084320634C
:1006A0002878800605D5206B10218843E968084327
:1006B00020630020F8BD00000010024000700040E0
:1006C00088130000F8B5054644480E460068C00788
:1006D000C00FB0420AD2414801684908490031437D
:1006E00001600068C007C00FB0425CD128783C4C64
:1006F000800705D56068F0218843A96808436060D9
:100700002878C0073FD06868012813D021680228E4
:1007100013D08907002946DA6168890889000143F6
:100720006160FFF7F1FD6968074601290DD00229D4
:1007300017D024E021688903ECE78901EAE7FFF795
:10074000E3FDC11B2748814217D860680007800F6E
:100750000128F4D117E0FFF7D7FDC11B21488142E2
:100760000BD860680007800F0228F4D10BE0FFF778
:10077000CBFDC11B1B48814201D90320F8BD606835
:100780000007800FF3D115480168C907C90FB142AE
:100790000BD9016849084900314301600068C0076E
:1007A000C00FB04201D00120F8BD2878400706D51F
:1007B0006068072109028843E9680843606000F027
:1007C0002DF86168084A0906090F515CC8400749BD
:1007D00008600020FFF7CEFE0020F8BD0020024098
:1007E0000010024088130000241900080C000020AB
:1007F00001480068704700000C00002004480549CB
:1008000000684968044A4905490F515CC84070476F
:100810000C000020001002403419000810B512A38B
:100820000FCB88B06C460FC413A30FCB0FC416496F
:100830004A680C20134603401448042B0FD0082BA1
:100840000DD193021B0F6C46E45CC96A04AB090727
:10085000090F595CD20304D5FFF742FC604308B08E
:1008600010BD0B486043FAE70203040506070809B8
:100870000A0B0C0D0E0F10100102030405060708E9
:10088000090A0B0C0D0E0F100010024000127A0026
:1008900000093D00FEB504460078D04DC00747D0A2
:1008A00068680007800F012807D068680007800F7C
:1008B000022809D16868C00306D52868800337D5A7
:1008C000606800287ED033E0012062680004012ABD
:1008D00011D08100002A01D0052A10D02A68824355
:1008E0002A602868884328606068002814D0FFF7D1
:1008F0000BFD06460CE0296801432960F4E72A68ED
:100900000A432A60F7E7FFF7FFFC801B64286FD8D3
:1009100028688003F7D50BE0FFF7F6FC064604E0F5
:10092000FFF7F2FC801B6428F1D828688003F7D415
:1009300020780126800700283BDA68680007800FCE
:1009400007D068680007800F022809D16868C003D3
:1009500006D42868800715D5E068012832D111E057
:10096000E0680028286815D030432860FFF7CCFCE9
:10097000074604E0FFF7C8FCC01B0228C7D8286858
:100980008007F7D52868F82188432169C900084302
:1009900028600EE0400840002860FFF7B5FC0746DD
:1009A00004E0FFF7B1FCC01B0228B0D8286880071C
:1009B000F7D42078000724D5E0690028686A10D0B1
:1009C000304300E008E16862FFF79EFC074604E060
:1009D000FFF79AFCC01B022899D8686A8007F7D5F0
:1009E0000FE0400840006862FFF78EFC074605E014
:1009F0009DE0FFF789FCC01B022888D8686A800741
:100A0000F7D4207804274007002860DA00200190FE
:100A1000E869C00008D4E969B8060143E961E969F9
:100A200001400120009101906D480168C90511D471
:100A30000168821511430160FFF766FC009005E034
:100A4000FFF762FC0099401A642870D86448006877
:100A5000C005F5D5A06801280AD0002801D00528D6
:100A600010D0286A400840002862286AB84301E094
:100A7000286A30432862A068002812D0FFF744FC9F
:100A800000900AE0286A38432862F1E7FFF73CFC4F
:100A90000099411A5348814249D8286A8007F5D500
:100AA0000DE0FFF731FC009006E0FFF72DFC009908
:100AB000411A4C4881423AD8286A8007F5D40198F7
:100AC000002804D0E969012000078143E96120780A
:100AD000C00635D5606901280CD0401D686B23D055
:100AE00038436863686B400840006863FFF70CFC9C
:100AF000064622E0686B38436863686B304368637E
:100B0000FFF702FC064604E0FFF7FEFB801B02280D
:100B10005BD8686B8007F7D5686BF8218843A169BB
:100B2000C900084368630BE0B8436863F4E74CE02E
:100B3000FFF7EAFB801B022847D8686B8007F7D4D1
:100B4000206A002846D069680907890F022943D026
:100B5000012636060228286805D0B0432860FFF732
:100B6000D3FB044633E0B0432860FFF7CDFB0746D4
:100B700004E0FFF7C9FBC01B022826D828688001C3
:100B8000F7D4E86AE16A000900010843E862616A93
:100B9000A06A084369683D221204914308436860D3
:100BA000286830432860FFF7AFFB044604E0FFF7F6
:100BB000ABFB001B022808D828688001F7D509E0A4
:100BC000FFF7A2FB001B022801D90320FEBD286805
:100BD0008001F5D40020FEBD0120FEBD00100240C2
:100BE0000070004088130000094910B5401E88427B
:100BF00001D9012010BD074C60610321081F00F0DE
:100C0000D5FB0020A06107202061002010BD00005E
:100C1000FFFFFF0000E000E070470000F8B5036848
:100C20000446D96918680D072D0F07D18A0605D526
:100C3000820603D5204600F0D3FCF8BD9A68002D4B
:100C400064D0D507ED0FFF26213606402E435DD038
:100C5000CE0706D0C60504D501261E62E36E3343D7
:100C6000E3668F0702230426002F06DAD70704D095
:100C700027683B62E76E3743E7664F0706D5D20722
:100C800004D022681662E26E1A43E2660A0709D5AA
:100C9000202202402A4305D0236808221A62E36E0C
:100CA0001343E366E26E002AC7D0890604D58006A6
:100CB00002D5204600F094FCE06E000703D42068C3
:100CC000806840061CD5204600F06EFC20688168D4
:100CD000490611D58168402291438160606E0028E9
:100CE0000AD012494163606EFFF746FA0028A4D08B
:100CF000606E416B8847F8BD2046FFF78DFFF8BD59
:100D00002046FFF789FF0020E066F8BD0A0605D5FA
:100D1000020603D5204600F02BFDF8BD4906FCD5A0
:100D20004006FAD5204600F04EFCF8BD95150008A7
:100D300070B5040005D025466035687A002802D0D9
:100D400006E0012070BD00202872204600F026F841
:100D50002420687220680168490849000160204623
:100D600000F07CFC0128EDD0606A002802D020460B
:100D700000F0A2FB206841680122D2029143416049
:100D800020688168082291438160206801680122FF
:100D900011430160204600F0F4FB70BD10B586B031
:100DA000044614216846FFF7CAF9164920688842AC
:100DB00025D115488269012189030A43826182692C
:100DC0000A4005924269C9000A43426140690840ED
:100DD00005900C2000900220019001210320039037
:100DE0000291049109206946C006FFF7E9F9002243
:100DF00011461B20FFF7EEFB1B20FFF7E1FB06B0BF
:100E000010BD0000003801400010024070477047DC
:100E1000FEE7000010B50648006880694005400FF5
:100E2000034802D0FFF7C1FA10BDFFF7EAFA10BD80
:100E30001000002010B5406A01684A680123DB03F6
:100E40001A434A60826B00215163C26B51630146B1
:100E500040314A78602A02D0FFF7DBFA10BD202229
:100E60004A70FFF7A0FA10BDF0B503460022CE0786
:100E700040332824B025002E05D05E784222274634
:100E8000B74300D0F2228E0705D544265B78324363
:100E90009C4300D02A434B0701D5B8231A431123A2
:100EA0008B4301D190231A4312238B4301D160213C
:100EB0000A4300680168914301600020F0BD0168A9
:100EC0008A69D243920701D400228A62006881694C
:100ED000C943C90703D08169012211438161704769
:100EE000F8B50546044640356878282181432068D6
:100EF00004D00821C16100202870F8BD8169C903B0
:100F0000CF0F8169FE230E0C81681E408A05C168DF
:100F1000920D19408C46E168022912D10621D309AD
:100F20000E400B409E420BD1A16C491CA164A16CE8
:100F30000229E2D10021A1640823C361297007E0DE
:100F4000664604212046FFF78FFF002028703246B6
:100F500039462046FFF728FAF8BD0000F8B500260C
:100F6000054640350446AE702C48E0626685606CEC
:100F70000843606468782027282823D068782928C7
:100F800020D068782A281DD007212046FFF76CFF63
:100F90006878602800D06F702663666320680168F7
:100FA0004A041F49026817D501239B039A43026034
:100FB000A06B41632E70A06BFFF7DEF800281DD0F8
:100FC000A06B19E003212046FFF74EFF2820687030
:100FD000266314486063E1E7120410D50268012318
:100FE000DB039A430260E06B41632E70E06BFFF716
:100FF000C3F8002802D0E06B416B8847F8BD6878E1
:10100000602804D02E702046FFF703FAF8BD6F70F9
:101010002E702046FFF7C7F9F8BD00000000FFFF63
:10102000350E0008BD11000870B504461548E06291
:1010300000252563202220464030064642708570F8
:101040006563480711D52068416A606A421C626284
:101050000170208D002808D0401E2085608D401E24
:101060006085606C04210843606407212046FFF717
:10107000FBFE21681020C86135702046FFF724FA76
:1010800070BD00000000FFFFF8B504460068202690
:101090000F46C66121680820C86107212046FFF776
:1010A000E3FE20684168B202114341602068416854
:1010B0002D4A114041602046FFF701FF206801687A
:1010C000254649044035002902DB0168090406D59C
:1010D000697821292FD0E16B096849686185628DA3
:1010E0000421002A02D0626C0A4362647A070FD599
:1010F000426A606A431C63620270208D002807D038
:10110000401E2085608D401E6085606C08436064D1
:1011100000202063A8706063616C00290DD0616CB1
:101120002046FFF71BFF6878282803D13946204660
:10113000FFF77AFFF8BDA16BCEE7E26A0B498A425E
:1011400006D0E1626E7028702046FFF7BDF9F8BD49
:1011500069786E7022292870204602D0FFF7F1F9D5
:10116000F8BDFFF7EDF9F8BD00E800FE0000FFFF55
:1011700070B50026044640340546A67061782820E4
:1011800029290ED061782A290AD16070222028638B
:1011900002212846FFF768FE26702846FFF7D0F99F
:1011A00070BD60702120286301212846FFF75CFE96
:1011B00026702846FFF7C5F970BD0000F8B5054652
:1011C00004464035287816460F46012811D00120E4
:1011D00028703F49F8062DD5F0062BD5628D1020DA
:1011E000002A08D02168C861606C0421084360644B
:1011F00062E00220F8BDE36A01225206934202D067
:10120000E36A934202D16A78282A08D0E26A8A42C5
:1012100002D06978292907D02168C8614CE0394695
:101220002046FFF701FF47E02168C8612046FFF72D
:1012300046FE3EE0780717D5700715D5608D00286B
:101240000BD02068426A606A431C63620270208D82
:10125000401E2085608D401E6085608D00282BD14A
:10126000E06A884225D127E0380706D5300704D543
:1012700039462046FFF734FE1EE0B8071CD5B007FC
:101280001AD5608D00280CD0606A411C616221680B
:1012900000788862608D401E6085208D401E20850C
:1012A0000AE0E06A01210906884202D0E06A0028CB
:1012B00002D12046FFF75CFFB80605D5B00603D57E
:1012C00039462046FFF7E0FE00202870F8BD0000F8
:1012D0000000FFFF30B501688A6908241207002A60
:1012E00000DACC6103689969490700D5596A9969A0
:1012F0008A070E4905D50E4D4A78AD5C9D62521C99
:101300004A704B7800220D2B00D34A7003689D6908
:10131000AD0609D52025DD610368DC6100688369BD
:101320000124234383614A70002030BD0000002067
:10133000CC00002010B50E480C4901600D494160F9
:101340004A2181600121C160002101614161816107
:10135000C1610162FFF75EF800210548FEF7DAFF80
:1013600000210348FEF7FBFF10BD000000540040C1
:10137000100000201A09102010B50A480849016021
:101380004B21C901416000218160C160016181611F
:10139000C1610C22016242614162FFF7C9FC10BDCC
:1013A000003801405C000020704700008307FF22E6
:1013B000DB0E9A408907090E994000280BDA0007D6
:1013C000000F0838830808489B001818C369934326
:1013D0000B43C3617047830804489B001B181868BF
:1013E000904308431860704700ED00E000E400E01F
:1013F0007047704710B5FFF7A5F810BD70B594B0F1
:1014000030216846FEF79BFE00240D9402251294BD
:101410000120089503900E940F9405201026009546
:101420001394C0040C94109404960A901194099497
:101430000B946846FFF72EFA07200C900E940121BA
:101440000D950F940CA8FFF73DF9212010901396ED
:10145000129410A8FFF7C2F814B070BD13480168C9
:101460000122114301604168114A11404160016845
:10147000104A114001600168012292049143016009
:1014800041683F22120491434160C16A0909090180
:10149000C162016BFF22143291430163416B490821
:1014A0004900416300218160704700000010024044
:1014B0000CB8FF08FFFFF6FE10B5818CC90707D0F6
:1014C00001684A6801235B049A43836A1A434A60AD
:1014D000818C890707D501684A6801231B049A4358
:1014E000C36A1A434A60818C490707D501684A6874
:1014F00001239B049A43036B1A434A60818C0907BA
:1015000007D501684A680123DB039A43436B1A43FA
:101510004A60818CC90607D50268916801231B03C4
:101520009943836B19439160818C890607D50168C3
:101530008A6801235B039A43C36B1A438A60818CD8
:10154000490612D503685A6801210905046C8A43CB
:1015500022435A60026C8A4207D102685168032311
:101560005B059943436C19435160818C090607D58B
:1015700001684A680123DB04806C9A4302434A6095
:1015800010BD0021C1662022603042728272017259
:101590000846704710B5406A0022014640314A8330
:1015A0004A82FFF739FB10BD01680A68FF23213327
:1015B0009A430A6001688A68520852008A602021B2
:1015C00060308172704710B501680A6840239A4301
:1015D0000A60202269210A54FFF719FC002010BD7F
:1015E00070B50246403203466033948B9D7A0168A1
:1015F000222D05D08869082210438861022070BD21
:10160000898C012685683603B54202D10569002D13
:101610000BD02140446D651C45652170518B491EDE
:101620000904090C518307D015E0456D214029803C
:10163000416D891C4165F1E701680A68FF24213486
:10164000A2430A6001688A68520852008A60202119
:101650009972FFF7DBFB002070BD0000F8B504466F
:101660002369A268E6691A436369102133430020A5
:1016700026681A4333680546394F3B4013433360AD
:1016800023685A6803263603B243E66832435A6039
:10169000236AA26926681A43B3680B273F02BB433B
:1016A0001343B3602F4A126B9207920F06D0012AA0
:1016B00008D0022A08D0032A07D101E0002104E063
:1016C000022102E0042100E008210122E369D203A3
:1016D000934224D100290CD002290DD0042913D023
:1016E000082917D00125010909010007400F084307
:1016F00032E0FFF783F809E061681B4A4808801868
:10170000FEF7EEFC80B2EEE7FFF788F86168400074
:101710004A08F4E76168012248081204EFE700294B
:1017200008D0022909D004290BD008290ED00125A0
:101730002846F8BDFFF762F805E061680B4A4808E3
:1017400006E0FFF76BF861684A0801E06168480845
:101750008018FEF7C5FC80B22168C860E8E7000089
:10176000F369FFFF001002400024F40000127A0029
:101770006921095C212901D00220704702464032CC
:10178000518A002912D0012381681B03994202D19A
:101790000169002915D0C16C4B1CC364006809782D
:1017A0000185508A401E50820020704701680A68F7
:1017B00080239A430A600068016840221143016057
:1017C000F2E7C16C03680988C905C90D1985C16CA8
:1017D000891CC164E5E7000010B50A480168C869C2
:1017E0000A6803071B0F08D1800606D5900604D5AA
:1017F000888CC0B200F04CF810BD0248FFF70EFA1A
:1018000010BD00005C00002002E008C8121F08C1E3
:10181000002AFAD170477047002001E001C1121F71
:10182000002AFBD17047000008B5FEF793FEFFF7D2
:10183000E5FD14484269012149040A4342614069B7
:1018400008400090FFF776FDFFF796FD0E49086807
:10185000826801231A43826008680168FF222132EE
:101860001143016008484C3801684A68DB039A4319
:101870004A6006494163006801682E2211430160F5
:10188000FEE70000001002405C000020D5120008B6
:1018900070B5224C217800290DD0002501290ED0E9
:1018A0000302022910D0628803290FD0961CB1428E
:1018B00011D1A3802FE0422822D1E0802BE04D28D7
:1018C0001DD1E0884D30F8E7638001E0024362807B
:1018D000E2881018F1E7D21C914212D1A18801438D
:1018E000A180E2880E488A4207D1014605700C2289
:1018F0000D31401CFEF70AFC01E00121017025704A
:1019000070BDE2881218E2800A1FD2B21E2A02D2EB
:10191000034B0D339854491C217070BD000000200A
:10192000CC000020000000000000000001020304C1
:101930000607080900000000010203045C19000802
:101940000000002010000000081800086C190008B2
:1019500010000020E8040000181800080000000033
:0C196000000000000000000000127A00EF
:04000005080000B13E
:00000001FF
